:100000000C942A000C942B010C943C000C943C00A2
:100010000C943C000C943C000C943C000C943C0070
:100020000C943C000C943C000C943C000C94E000BC
:100030000C943C000C943C000C943C000C943C0050
:100040000C943C000C943C000C943C000C943C0040
:100050000C943C0011241FBECFE5D8E0DEBFCDBF1D
:1000600020E0A0E6B0E001C01D92A436B207E1F79F
:100070000E9461010C9416030C94000060E080E083
:100080000E94460161E080E00E94460162E080E05B
:100090000E94460160E081E00E94460161E081E04B
:1000A0000E94460162E081E00E94460163E082E036
:1000B0000E94420182B3846082BB789485B78160DC
:1000C00085BF85B7826085BF8BB780648BBF89B7DA
:1000D000816089BF80E00E94B2026CE084E00E94EF
:1000E000D602089580916300843018F01092630066
:1000F000F9CF813011F130F0823099F1833009F479
:100100004BC0F0CF60E080E00E944D0161E080E0F4
:100110000E94540162E080E00E94540160E081E0AE
:100120000E94540161E081E00E94540162E081E09C
:100130000E944D0110926200D5CF81E08093620051
:1001400060E080E00E94540162E080E00E9454017F
:1001500060E081E00E94540162E081E00E9454016D
:10016000C1CF60E080E00E94540161E080E00E9425
:10017000540162E080E00E944D0160E081E00E9455
:100180004D0161E081E00E94540162E081E00E9443
:10019000540110926200A6CF81E08093620060E07B
:1001A00080E00E94540162E080E00E94540160E01F
:1001B00081E00E94540162E081E00E94540192CFEC
:1001C0001F920F920FB60F9211242F933F934F93CC
:1001D0005F936F937F938F939F93AF93BF93EF93AF
:1001E000FF93809160008430F0F0809161008F5F18
:1001F0008093610080916200813041F461E080E091
:100200000E945B0161E081E00E945B0180916100DE
:10021000853039F4809163008F5F80936300109282
:1002200061001092600080916000843018F48F5F4C
:1002300080936000FF91EF91BF91AF919F918F915B
:100240007F916F915F914F913F912F910F900FBED2
:100250000F901F9018951F920F920FB60F921124B6
:100260008F9380916300811107C08F5F809363003B
:1002700010926100109260008F910F900FBE0F904E
:100280001F90189540E00E9466010895982F862FD0
:1002900041E0692F0E9466010895982F862F41E062
:1002A000692F0E94EC010895982F862F40E0692F56
:1002B0000E94EC010895982F862F692F0E947202E8
:1002C00008950E943E000E947200FDCF643008F045
:1002D00082C0883008F07FC0411140C06130A1F079
:1002E00028F06230F9F0633059F108954AB321E003
:1002F00030E0B90102C0660F771F8A95E2F7CB01A3
:10030000809584238ABB089547B321E030E0B9018A
:1003100002C0660F771F8A95E2F7CB018095842390
:1003200087BB089544B321E030E0B90102C0660FF5
:10033000771F8A95E2F7CB018095842384BB0895CB
:1003400044B321E030E0B90102C0660F771F8A95FF
:10035000E2F7CB018095842384BB08954130D9F521
:10036000613099F028F06230E9F0633041F108958E
:100370004AB321E030E0B90102C0660F771F8A95C9
:10038000E2F7CB01842B8ABB089547B321E030E02C
:10039000B90102C0660F771F8A95E2F7CB01842B63
:1003A00087BB089544B321E030E0B90102C0660F75
:1003B000771F8A95E2F7CB01842B84BB089541B364
:1003C00021E030E0B90102C0660F771F8A95E2F79D
:1003D000CB01842B81BB0895643008F082C0883043
:1003E00008F07FC0411140C06130A1F028F06230B8
:1003F000F9F0633059F108954BB321E030E0B901D1
:1004000002C0660F771F8A95E2F7CB01809584239F
:100410008BBB089548B321E030E0B90102C0660FFC
:10042000771F8A95E2F7CB018095842388BB0895D6
:1004300045B321E030E0B90102C0660F771F8A950D
:10044000E2F7CB018095842385BB089542B321E078
:1004500030E0B90102C0660F771F8A95E2F7CB0141
:100460008095842382BB08954130D9F5613099F09D
:1004700028F06230E9F0633041F108954BB321E098
:1004800030E0B90102C0660F771F8A95E2F7CB0111
:10049000842B8BBB089548B321E030E0B90102C042
:1004A000660F771F8A95E2F7CB01842B88BB0895EE
:1004B00045B321E030E0B90102C0660F771F8A958D
:1004C000E2F7CB01842B85BB089542B321E030E0F5
:1004D000B90102C0660F771F8A95E2F7CB01842B22
:1004E00082BB08956430E8F58830D8F5613099F022
:1004F00028F06230E9F0633041F108954BB321E018
:1005000030E0B90102C0660F771F8A95E2F7CB0190
:1005100084278BBB089548B321E030E0B90102C0C5
:10052000660F771F8A95E2F7CB01842788BB089571
:1005300045B321E030E0B90102C0660F771F8A950C
:10054000E2F7CB01842785BB089542B321E030E078
:10055000B90102C0660F771F8A95E2F7CB018427A5
:1005600082BB0895813069F028F0823089F08330B1
:10057000B1F0089583B78F7B83BF83B7877F83BF35
:10058000089583B7806483BF83B7877F83BF08954F
:1005900083B78F7B83BF83B7886083BF089583B79A
:1005A000806483BF83B7886083BF089562BF823051
:1005B000F9F028F4882341F0813081F008958330E8
:1005C00009F1843049F1089583B7816083BF83B70F
:1005D0008D7F83BF83B78B7F83BF089583B78E7F63
:1005E00083BF83B7826083BF83B78B7F83BF089548
:1005F00083B7816083BF83B7826083BF83B78B7FFC
:1006000083BF089583B78E7F83BF83B78D7F83BFFA
:1006100083B7846083BF089583B7816083BF83B746
:100620008D7F83BF83B7846083BF0895F894FFCF25
:00000001FF
